:020000040800F2
:10000000F0FF0120C168040809300208F9B20008B5
:1000100035690408356904083569040800000000E2
:100020000000000000000000000000000F30020887
:100030000D300208000000000B300208C5AB0008BC
:100040003569040835690408356904083569040808
:10005000356904083569040875B50008B5B60008A7
:1000600075B6000835B60008F5B500085115010849
:100070004115010831150108211501080D15010868
:10008000F9140108E51401083569040800000000AE
:10009000000000000000000000000000B5B50008EE
:1000A0004D9B0008699E000835690408299F0008D7
:1000B000A99D000835690408E99C00083569040811
:1000C0003569040835690408356904083569040888
:1000D00035690408A1AC000805AC00080000000068
:1000E00035B50008356904083577020800000000BE
:1000F000000000000000000000000000D114010812
:1001000000000000356904081D9C000835690408DA
:1001100000000000000000000000000000000000DF
:10012000BD140108A91401089514010881140108DF
:100130006D14010800000000000000000000000035
:100140000000000000000000000000005D3E02080A
:1001500059140108451401083114010835690408CF
:10016000356904083569040800000000000000003B
:10017000000000000000000000000000000000007F
:1001800000000000356904080000000000000000C5
:08019000356904083569040813
:0801980058640400010000009E
:1001A0001002010084300020803000200000000098
:1001B000F00600080B123800442A00208830002086
:1001C00000000000F20600081A023C00842A002009
:1001D000C030002000000000B58E00082700040099
:1001E000802A0020FC300020000000002A070008C0
:1001F0000312330024380020AC3F00200000000030
:100200003007000825009600603E0020F63E0020E2
:100210000000000000000000F6210C002C3C002033
:10022000DC3D00200000000064070008150070009D
:10023000383C00206C3D0020000000000000000061
:100240002A006000A83C00200C3D002000000000B7
:10025000D9E802082C0010008C3F00209C3F0020B1
:10026000000000003D3001082B0024000340002066
:10027000DF3F0020000000000D30010819020C00D3
:100280008C3600206C40002000000000CD86000865
:10029000291078003C3B0020E83D002000000000D1
:1002A0000000000014000300383A0020083D002040
:1002B000000000007007000810100200C038002085
:1002C000784000200000000074070008281010008B
:1002D000B03800207C400020000000000518010814
:1002E00023001000443500208C4000200000000056
:1002F0001D180108F8210600A23600209C400020AD
:10030000000000007607000816000800B440002036
:100310001C440020000000007C07000805100600B7
:10032000B4500020E05500200000000084070008C1
:10033000F531700014500020E85500200000000046
:10034000E588020826000E00685600205856002056
:1003500000000000EF2302080B201000144E0020C4
:100360009C560020000000008A0700081F201C0087
:1003700094450020AC560020000000009A070008B9
:1003800005020400DC4F0020C856002000000000D9
:10039000B607000803010A00C24D0020CC56002019
:1003A00000000000BA0700081302030040440020C8
:1003B000D856002000000000C40700080C106C0094
:1003C00026690020006F002000000000B1910308A2
:1003D0000E502001DC6700206C6F00200000000040
:1003E00001E9020813000400A86C00208C700020B2
:1003F00000000000C8070008010104005667002043
:1004000090700020000000000000000000010400C7
:100410004E6700209470002000000000CC07000808
:1004200002010300496700209870002000000000CE
:10043000D991030809020100B46E00209C700020CD
:1004400000000000D0070008010205005E670020E0
:10045000A070002000000000A17E0208000205003C
:10046000586C0020A8700020000000000000000070
:100470001B0208004C6C0020B0700020000000003F
:10048000F1860008012008008C6D0020B870002063
:1004900000000000D2070008190005003C6E002093
:1004A000C070002000000000DA07000837001E00BE
:1004B000146E0020C870002000000000E007000853
:1004C0001E0005002C6A0020E870002000000000DB
:1004D000FE0700081B00F400E8560020F070002022
:1004E00000000000798F02080E020200246D002037
:1004F000E471002000000000040800082F00110033
:10050000E06E0020E87100200000000006080008EE
:100510001A000E00E0750020247800200000000082
:100520001808000818020200707E0020C07E00201B
:10053000000000000000000017020B00657E002094
:10054000C47E0020000000005186000802000C005C
:10055000747E0020D07E002000000000000000001B
:10056000081209005C7E0020DC7E002000000000F4
:1005700095860008F7010600567E0020E87E0020E0
:1005800000000000260800080A020A00187900206E
:10059000F07E0020000000002C080008030001008D
:1005A000587A0020FC7E00200000000000000000BF
:1005B0000400800038B600200CC0002000000000BD
:1005C000000000000D002400BCB400208CC00020FE
:1005D0000000000029920308F901040018AC002073
:1005E000B0C0002000000000DD81000818202C00B1
:1005F000E8AB0020B4C000200000000069900008B3
:1006000006101800349F0020E0C000200000000009
:100610005DE90208FB0101006C9E0020F8C000208B
:10062000000000005DA30008FC010900389D0020C7
:10063000FCC00020000000006DA300083400100082
:10064000DC9A002008C100200000000031E9020807
:1006500011020800B49A002018C100200000000018
:100660003608000812120400AC9A002020C10020B5
:10067000000000003E08000812200D009C9A002097
:1006800024C100200000000042080008FD012100F4
:10069000E091002034C100200000000065810008C6
:1006A0000A402000DC7F002058C10020000000002C
:1006B0005008000802020300587F002078C1002083
:1006C00000000000000000000C020300147F002066
:1006D0007CC100200000000041860008FE010900E6
:1006E000747F002080C1002000000000DD8600082B
:1006F00000000000000000000000000000000000FA
:1007000000000000000000000000000000000000E9
:1007100000000000000000000000000000000000D9
:1007200000000000000000000000200300000000A6
:1007300000000000000000000000000000000000B9
:1007400000000000000000000000000000000000A9
:100750000000000000000000000000000000000099
:100760000000010000000000010000000202000083
:100770000300000000050401F4011900C409000091
:10078000190128282000030100002B21231E6401E9
:100790000100000001000A01290000000000000122
:1007A000000000050000010203000000000000003E
:1007B00000000000000000000000040101006C16B1
:1007C000000000000000000000040432B30000003C
:1007D0000000E8036400040A000100002801000092
:1007E00020003200C800D007960014003200280014
:1007F000B00440060005500014000F00080100007E
:1008000001000000000000000000000000000000E7
:1008100000000000000000007E05EA05B40532007B
:10082000E803D00700003F010000000000004A017B
:10083000B400D60100000000000001010101FFFF2B
:10084000FFFF000000010000054D343152000000A0
:10085000003001000000000064002C0100000000D6
:10086000000000000000020000019E077D004632EB
:1008700001010101800100000800000004000000E7
:100880000000000000000000010203040607080940
:10089000D6010100000101010001FFFFFFFFFFFF82
:1008A000010102FFFF00000004030904120100021D
:1008B000EF020140830456320002010203010000EE
:1008C00012010002020200408304405700020102AC
:1008D0000301000009026400030100C032090400A2
:1008E0000001030000000921110100012226000778
:1008F00005830308000A080B010202020100090433
:10090000010001020201000524001001052401007C
:1009100002042402020524060102070582030800DE
:10092000FF09040200020A0000000705010240005E
:10093000000705810240000009024300020100C0D7
:100940003209040000010202010005240010010523
:100950002401000104240202052406000107058287
:10096000030800FF09040100020A00000007050156
:10097000024000000705810240000000FF00000067
:1009800000FFFF0000000000AA5505010000010063
:1009900005010905A101A10005010930093109324C
:1009A000093309350934094009381581257F75084F
:1009B00095088102C0C0000009022200010100E088
:1009C00032090400000103010200092111010001A4
:1009D0002226000705830308000A0000000000002B
:1009E0000102030401020304060708091F34020878
:1009F0001D39020899340208F71802084B1D020835
:100A00000719020823190208D1180208C31802089E
:100A100000000000000000002D202D2D202D2D2D88
:100A20002D202D2D2D2D00000000000000000000C5
:100A300000000000000000AA550B010000AA5507A5
:100A4000010000AA550902000000AA5503009F00FA
:100A500001000000C0120000FF1FFF1F0100000086
:100A60007856002000000000E4060020040000008A
:100A70000100000080EE0408CCFA04080000000029
:100A8000ED910308A08601000400000000000000B2
:100A90000000000000000000000000000000000056
:100AA000000000000000000080EE0408D4FA0408F2
:100AB0000000000001800008E803000004000000BE
:100AC0000000000000000000000000000000000026
:100AD000000000000000000000000000B001050858
:100AE000A0D004080000000025BA03087D00000023
:100AF00006000000000000000000000000000000F0
:100B000000000000000000000000000000000000E5
:100B1000D8ED0408000000000000000065E30108B3
:100B2000E8030000030000000000000000000000D7
:100B300000000000000000000000000000000000B5
:100B400000000000DCFA04080000000000000000C3
:100B500079ED0208102700000300000000000000EB
:100B60000000000000000000000000000000000085
:100B70000000000000000000E8FA04080000000087
:100B8000152D0108D90702085F7600000500000056
:100B90000000000000000000000000000000000055
:100BA00000000000000000000000000040F0040809
:100BB000000000000000000021F1000810270000E4
:100BC0000100000000000000000000000000000024
:100BD0000000000000000000000000000000000015
:100BE000ECFA040800000000000000000580000886
:100BF000E803000005000000000000000000000005
:100C000000000000000000000000000000000000E4
:100C100000000000F8FA04080000000000000000D6
:100C200015A70308204E000003000000000000008C
:100C300000000000000000000000000000000000B4
:100C4000000000000000000008FB04080000000095
:100C50000000000001A50308204E00000300000072
:100C60000000000000000000000000000000000084
:100C700000000000000000000000000018FB040855
:100C80000000000000000000FD8B0008400D030084
:100C90000300000000000000000000000000000051
:100CA0000000000000000000000000000000000044
:100CB00044EF0408000000000000000049F50308AC
:100CC00010270000010000000000000000000000EC
:100CD0000000000000000000000000000000000014
:100CE00000000000F0ED040800000000000000001B
:100CF00085BE02081027000003000000000000006D
:100D000000000000000000000000000000000000E3
:100D1000000000000000000028FB040800000000A4
:100D2000000000008DAA0108A86100000100000079
:100D300000000000000000000000000000000000B3
:100D400000000000000000000000000048F004085F
:100D5000000000000000000081BD0108A00F00009D
:100D60000100000000000000000000000000000082
:100D70000000000000000000000000000000000073
:100D800034FB040800000000000000005D8B020836
:100D9000102700000100000000000000000000001B
:100DA0000000000000000000000000000000000043
:100DB000000000004CEF04080000000000000000EC
:100DC0000D5402081A41000001000000000000005C
:100DD0000000000000000000000000000000000013
:100DE0000000000000000000A8F00408000000005F
:100DF000000000001520020810270000010000007C
:100E000000000000000000000000000000000000E2
:100E100000000000000000000000000040FB04088B
:100E2000000000000000000099AA02081A4100001A
:100E300001000000000000000000000000000000B1
:100E400000000000000000000000000000000000A2
:100E500044FB04080000000000000000954F020859
:100E6000400D030000000000000000000000000032
:100E70000000000000000000000000000000000072
:100E8000000000004CFB040800000000000000000F
:100E900049AA0108400D0300000000000000000006
:100EA0000000000000000000000000000000000042
:100EB000000000000000000054FB040800000000D7
:100EC000000000004DCC020850C3000003000000E9
:100ED0000000000000000000000000000000000012
:100EE00000000000000000000000000060FB04089B
:100EF000000000000000000075A4030840420F003D
:100F000000000000000000000000000000000000E1
:100F100000000000000000000000000000000000D1
:100F20006CFB0408000000000000000081F70308CB
:100F300050C300000000000000000000000000009E
:100F400000000000000000000000000000000000A1
:100F500000000000000200051002700B00000100FC
:100F6000E00101010100000075820208000000009C
:100F70006C080020080805080000000000000000C0
:100F8000000000000000000080FD040800000000D8
:100F9000000000000209002004000000B40705085A
:100FA0000D00000029A60208D42200200000000045
:100FB000200105080D00000051A60208C8220020EB
:100FC0000000000088020508080000000000000082
:100FD000BC220020040000008C0105080D00000068
:100FE00029830208B0220020000000003C0205080E
:100FF0000300000025A90208A42200200000000030
:10100000180805080300000025A9020898220020FE
:1010100000000000C8FD04080100000000000000FE
:101020000000000000000000000000000E000000B2
:101030000000000000000000000000000808050893
:1010400000000000000000000000000000000000A0
:1010500080FD0408000000000000000002090020DC
:10106000040000006007050803000000D58902089D
:101070008C220020080000008C0105080D000000F3
:1010800029830208B0220020000000003C0205086D
:101090000300000025A90208A4220020000000008F
:1010A000180805080300000025A90208982200205E
:1010B00000000000C8FD040801000000000000005E
:1010C0000000000000000000000000000E00000012
:1010D00000000000000000000000000020080508DB
:1010E0000000000000000000000000000000000000
:1010F00080FD04080000000000000000020900203C
:1011000004000000680705080300000025A9020884
:10111000E022002000000000C8FD040801000000DB
:1011200000000000000000000000000000000000BF
:101130000E000000000000000000000000000000A1
:1011400020700020702D7200FFFFFFFF01000000E3
:101150000000803F080000000000000000000000C8
:10116000481E0020FA0000000100000001000000FD
:10117000FFFF2D202D2D202D2D2D2D202D2D2D004F
:10118000000000000000000000000000000000005F
:10119000000000000000803F0000803FFFFFFFFFD5
:1011A0009CFD0408A4FD0408C0FD04080000000024
:1011B0000000000000000000000000009FFB040889
:1011C00004000000F3A3020800000000000000007B
:1011D000C8FD04080100000000000000000000003D
:1011E00000000000000000000E00000000000000F1
:1011F0000000000000000000C85000200100C409E9
:1012000000000000C65000200100C40900000000DA
:10121000C45000200100C40900000000C25000209A
:101220000100C40900000000BE5000200100C409F4
:1012300000000000C05000200100C40900000000B0
:10124000BC5000200100C40900000000BA5000207A
:101250000100C40900000000706700200100C80000
:10126000010000006E67002032003075320000007F
:101270006C670020055A05006967002000FF010027
:101280006B67002001000000300900206767002024
:101290000200000088A704086867002000FF010022
:1012A0006A67002001000000300900206667002006
:1012B0000200000088A704085C67002080C1803E0F
:1012C000050000005A67002080C1803E0500000034
:1012D0005467002080C1803E050000005267002056
:1012E00080C1803E050000004C67002000FF010027
:1012F000486700200A320100476700200400000010
:1013000044AB0408466700200200000058AB040804
:10131000000000000000000038090020884F002075
:101320009CFF2C0100000000F20600200A000000D3
:1013300064AB04083C670020E0150C1700000000B7
:10134000F4060020080000005CA70408F306002053
:101350000500000098AC04083E6700200200000071
:101360007CAB0408AC6900200100FF7F0100000095
:10137000AB6900200200000088AB0408CF670020A2
:101380000300000098AB0408CE67002003000000B3
:1013900098AB0408066900200000F4010100000079
:1013A000046900200000F40101000000026900202F
:1013B0000000F40101000000006900200000F401B9
:1013C00001000000FE6800200000803E01000000D7
:1013D000FC6800200000803E01000000226900201F
:1013E000E803D0070A000000206900200064010023
:1013F0000A00000015690020006401001469002043
:10140000006401001C690020006401000A00000063
:101410001B690020006401000A0000001A69002016
:10142000006401000A0000001F6900200064010040
:101430000A0000001E690020006401000A0000008C
:101440001D690020006401000A00000019690020E5
:1014500000FF01000A0000001869002000FF0100E1
:101460000A0000001769002000FF01000A000000C8
:10147000D86700200000F40101000000D6670020BA
:101480000000F40101000000D46700200000F40116
:1014900001000000D26700200000F40101000000FC
:1014A000D06700200000F401010000001269002054
:1014B00000640100106900201400E803010000002E
:1014C0000E690020E80330750A0000000C69002056
:1014D00000C801000B69002000C801000A69002053
:1014E00000C8010009690020006401000A00000032
:1014F000A06900200000D007010000009B690020C7
:1015000000C801009A69002000C801009969002004
:1015100000C801009E6900200000D0070100000003
:101520009869002000C801009769002000C80100E8
:101530009669002000C801009C6900200000D007C7
:10154000010000009569002000C801009469002096
:1015500000C801009369002000C80100F0FD0408E4
:10156000000000000000000000000000000000007B
:1015700084D004080900000000000000DC090020FD
:10158000040000008CD004080900000000000000E6
:10159000D0090020040000004005050809000000F3
:1015A00000000000C4090020040000006CFC0408D6
:1015B0000900000000000000B8090020040000003D
:1015C00000FE04080900000000000000AC09002033
:1015D0000400000008FE04080900000000000000EC
:1015E000A00900200400000010FE0408090000000B
:1015F00000000000940900200400000018FE040808
:10160000090000000000000088090020040000001C
:10161000C8FD0408010000000000000000000000F8
:1016200000000000000000000E00000000000000AC
:1016300000000000000000000C0005080000000091
:1016400000000000000000000000000034EE04086C
:101650000700000000000000000A00200000000059
:101660001C0005080800000000000000F40900202C
:10167000000000002800050808000000000000002D
:10168000E809002000000000C8FD04080100000077
:10169000000000000000000000000000000000004A
:1016A0000E0000000000000000000000000000002C
:1016B00030000508000000000000000000000000ED
:1016C00000000000400005080D00000000000000C0
:1016D0003C0A002000000000480005080D00000042
:1016E00000000000300A0020000000005000050843
:1016F0000700000000000000280A00200000000091
:10170000580005080D000000000000001C0A002021
:1017100000000000600005080D000000000000004F
:10172000100A002000000000680005080700000003
:1017300000000000080A002000000000C8FD0408A6
:101740000100000000000000000000000000000098
:10175000000000000E00000000000000000000007B
:1017600000000000700005080000000000000000FC
:10177000000000000000000034EE04080C0000002F
:1017800000000000726700200000000084000508CF
:101790000C00000000000000746700200000000042
:1017A000940005080C00000000000000AA6700205B
:1017B00000000000A40005080C000000000000006C
:1017C0009E67002000000000B80005080C00000023
:1017D000000000007667002000000000C40005083B
:1017E0000C000000000000007867002000000000EE
:1017F000CC0005080C000000000000007A67002003
:1018000000000000E00005080C00000000000000DF
:101810007C67002000000000E80005080C000000C4
:10182000000000007E67002000000000F0000508B6
:101830000C00000000000000BC6700200000000059
:10184000080105080C00000000000000806700206F
:1018500000000000140105080C000000000000005A
:10186000826700200000000094D004080C000000F3
:101870000000000084670020000000001C01050833
:101880000C0000000000000086670020000000003F
:10189000280105080C0000000000000088670020F7
:1018A00000000000340105080C00000000000000EA
:1018B0008A67002000000000400105080C000000BD
:1018C000000000008C670020000000004C010508AB
:1018D0000C000000000000008E67002000000000E7
:1018E000580105080C00000000000000A26700205D
:1018F00000000000600105080C000000000000006E
:10190000A067002000000000680105080C0000002E
:1019100000000000AE670020000000007401050810
:101920000C00000000000000B06700200000000074
:10193000800105080C00000000000000B6670020D0
:101940000000000028FB04080C000000000000005C
:1019500090670020000000008C0105080C000000CA
:1019600000000000986700200000000094010508B6
:101970000C00000000000000926700200000000042
:10198000A00105080C000000000000009467002082
:1019900000000000AC0105080C0000000000000081
:1019A0009667002000000000B40105080C0000004C
:1019B000000000009A6700200000000054EE0408B8
:1019C0000C00000000000000A467002000000000E0
:1019D000C00105080C000000000000009C6700200A
:1019E000000000000BFD04080C00000000000000D7
:1019F000AC67002000000000CC0105080C000000CE
:101A000000000000A667002000000000D4010508C7
:101A10000C00000000000000A8670020000000008B
:101A2000DC0105080C00000000000000B267002087
:101A300000000000E40105080C00000000000000A8
:101A4000B467002000000000EC0105080C00000055
:101A500000000000C667002000000000C8FD040868
:101A60000100000000000000000000000000000075
:101A7000000000000E000000000000000000000058
:101A800000000000F4010508000000000000000054
:101A90000000000000000000000205080D0000002A
:101AA00000000000940A0020000000000802050861
:101AB0000D00000000000000880A00200000000067
:101AC000100205080700000000000000800A002046
:101AD000000000001C0205080700000000000000D4
:101AE000780A002000000000280205080900000014
:101AF000000000006C0A002000000000340205080D
:101B00000900000000000000600A00200000000042
:101B1000400205080900000000000000540A0020EF
:101B2000000000005002050809000000000000004D
:101B3000480A002000000000C8FD04080100000061
:101B40000000000000000000000000000000000095
:101B50000E00000000000000000000000000000077
:101B60006402050800000000000000000000000002
:101B700000000000740205080500000000000000DD
:101B8000CD67002000000000C8FD0408010000002F
:101B90000000000000000000000000000000000045
:101BA0000E00000000000000000000000000000027
:101BB0007C0205080000000000000000000000009A
:101BC0000000000080FD040800000000000000008C
:101BD000A80100200400000068FC04080D000000BB
:101BE00055A40208E80A002000000000B407050818
:101BF0000D0000002D820208DC0A00200000000019
:101C0000200105080D00000011820208D00A002002
:101C10000000000088020508080000000000000025
:101C2000C40A0020040000008C0105080D0000001B
:101C300059810208B80A002000000000900205083F
:101C40000900000000000000AC0A002004000000B1
:101C50003C0205080300000025A90208A00A002094
:101C600000000000C8FD04080100000000000000A2
:101C70000000000000000000000000000E00000056
:101C800000000000000000000000000098020508AD
:101C90000000000000000000000000000000000044
:101CA000A80205080D00000000000000000B002045
:101CB00000000000B00205080A000000000000005B
:101CC000DA69002000000000BC0205080A000000DC
:101CD00000000000E269002000000000C4020508C6
:101CE0000A00000000000000EA6900200000000077
:101CF000CC0205080800000000000000F40A0020E3
:101D000000000000C8FD0408010000000000000001
:101D10000000000000000000000000000E000000B5
:101D2000000000000000000000000000D4020508D0
:101D300000000000000000000000000000000000A3
:101D4000E80205080D00000000000000180B00204C
:101D500000000000F802050804000000CDA60208FB
:101D60000000000000000000000305080D00000056
:101D7000000000000C0B0020000000001403050808
:101D800004000000A9A602080000000000000000F6
:101D9000C8FD040801000000000000000000000071
:101DA00000000000000000000E0000000000000025
:101DB00000000000000000001C03050800000000F7
:101DC00000000000000000000000000030030508D3
:101DD0000800000000000000600B00200000000070
:101DE0003C0305080800000000000000540B002020
:101DF0000000000048030508080000000000000083
:101E0000480B0020000000005403050808000000F3
:101E1000000000003C0B00200000000060030508EB
:101E20000800000000000000300B0020000000004F
:101E30006C0305080800000000000000240B0020CF
:101E400000000000C8FD04080100000000000000C0
:101E50000000000000000000000000000E00000074
:101E600000000000000000000000000078030508EA
:101E70000000000000000000D30800200000000067
:101E8000840305080B00000000000000F40B002094
:101E900000000000900305080B0000000000000097
:101EA000E80B0020000000009C0305080B00000068
:101EB00000000000DC0B002000000000A803050863
:101EC0000B00000000000000D00B0020000000000C
:101ED000B40305080B00000000000000C40B002044
:101EE00000000000C00305080B0000000000000017
:101EF000B80B002000000000CC0305080B00000018
:101F000000000000AC0B002000000000D803050812
:101F10000B00000000000000A00B002000000000EB
:101F2000E40305080B00000000000000940B0020F3
:101F300000000000F003050807000000000000009A
:101F40008C0B002000000000F803050807000000CB
:101F500000000000840B00200000000004040508BD
:101F60000B00000000000000780B002000000000C3
:101F70001004050808000000000000006C0B0020A1
:101F800000000000C8FD040801000000000000007F
:101F90000000000000000000000000000E00000033
:101FA0000000000000000000000000001C04050804
:101FB0000000000000000000000000000000000021
:101FC000300405080800000000000000300C00206C
:101FD000000000003C0405080800000000000000AC
:101FE000240C002000000000480405080800000040
:101FF00000000000180C0020000000005404050838
:1020000008000000000000000C0C00200000000090
:10201000600405080800000000000000000C00201B
:1020200000000000C8FD04080100000000000000DE
:102030000000000000000000000000000E00000092
:102040000000000000000000000000006804050817
:102050000000000000000000D00800200000000088
:10206000780405080B00000000000000740C00203C
:1020700000000000840405080700000000000000C4
:102080006C0C002000000000900405080700000010
:1020900000000000640C0020000000009C04050803
:1020A00007000000000000005C0C002000000000A1
:1020B000A80405080800000000000000500C0020E3
:1020C00000000000B0040508080000000000000047
:1020D000440C002000000000B804050807000000C0
:1020E000000000003C0C002000000000C8FD0408B7
:1020F00001000000000000000000000000000000DF
:10210000000000000E0000000000000000000000C1
:1021100000000000C40405080000000000000000EA
:10212000D008002000000000D004050807000000CF
:1021300000000000E40C002000000000D8040508A6
:102140000700000000000000DC0C00200000000080
:10215000E00405080700000000000000D40C002087
:1021600000000000E804050808000000000000006E
:10217000C80C002000000000F00405080700000063
:1021800000000000C00C002000000000F80405085A
:102190000700000000000000B80C00200000000054
:1021A000000505080700000000000000B00C00203A
:1021B00000000000080505080800000000000000FD
:1021C000A40C002000000000100505080700000016
:1021D000000000009C0C002000000000180505080D
:1021E0000700000000000000940C00200000000028
:1021F0002005050807000000000000008C0C0020EE
:10220000000000002805050808000000000000008C
:10221000800C002000000000C8FD04080100000040
:1022200000000000000000000000000000000000AE
:102230000E00000000000000000000000000000090
:10224000000000009D850208EC0C0020CB670020F8
:102250002B000000A8AB0408CA67002000C80100DA
:10226000C8670020E803D007010000004D41544535
:102270004B4634313152580065670020000301009D
:102280006467002000030100E5840208BD840208A1
:10229000C80D0020798402082D840208400E002019
:1022A000258502080D850208F40E00209983020896
:1022B0004D83020814120020B385020879A6020893
:1022C000F012002099810208000000004013002055
:1022D000158A0208358802081C140020D9850208D6
:1022E00000000000BC140020818602084D86020810
:1022F000481500200987020855870208FC150020B0
:1023000013690020010601001D860208ED85020800
:102310003C170020B5860208F1A60208DC17002051
:102320008587020841A70208A41800200869002038
:102330000103010030050508000000000000000056
:1023400000000000000000003C0505080800000037
:1023500000000000F01900200000000044050508FE
:102360000700000000000000E81900200000000045
:10237000540505080D00000000000000DC190020D5
:1023800000000000600505080300000025A9020800
:10239000D019002000000000C8FD04080100000062
:1023A000000000000000000000000000000000002D
:1023B0000E0000000000000000000000000000000F
:1023C0006805050800000000000000000000000093
:1023D00000000000780505080A0000000000000069
:1023E00038F9040800000000800505080A00000014
:1023F0000000000018F90408000000008805050826
:102400000A00000000000000A26900200000000097
:10241000900505080A00000000000000FC190020DB
:1024200000000000C8FD04080100000000000000DA
:102430000000000000000000000000000E0000008E
:1024400000000000000000000000000098050508E2
:10245000000000000000000000000000000000007C
:10246000A40505080300000025A90208301A002071
:1024700000000000B00505080300000025A90208BF
:10248000241A002000000000B80505080300000021
:1024900025A90208181A002000000000C005050840
:1024A000050000000000000063670020000000003D
:1024B000C80505080700000000000000101A0020F1
:1024C00000000000D405050807000000000000001F
:1024D000081A002000000000C8FD040801000000E8
:1024E00000000000000000000000000000000000EC
:1024F0000E000000000000000000000000000000CE
:10250000E0050508000000000000000000000000D9
:1025100000000000F40505080300000025A90208DA
:10252000601A0020000000000006050803000000FB
:1025300025A90208F806002000000000080605088A
:102540000300000025A90208541A00200000000022
:10255000100605080300000025A90208481A0020FB
:10256000000000008C0105080300000025A90208F6
:102570003C1A002000000000C8FD04080100000013
:10258000000000000000000000000000000000004B
:102590000E0000000000000000000000000000002D
:1025A0001C060508000000000000000000000000FC
:1025B000000000002C060508070000009DA7020887
:1025C000BC1A002000000000B00105080300000054
:1025D00025A90208B01A00200000000038060508EE
:1025E0000300000025A90208A41A00200000000032
:1025F000400605080300000025A90208981A0020DB
:1026000000000000480605080700000081A7020836
:10261000901A002000000000380A0508030000009E
:1026200025A90208841A00200000000054060508AD
:102630000300000025A90208781A0020000000000D
:10264000600605080300000025A902086C1A002096
:1026500000000000C8FD04080100000000000000A8
:102660000000000000000000000000000E0000005C
:102670000000000000000000000000006D8502085E
:102680003D850208C41A00200188020800000000ED
:10269000501B002009840208E5830208DC1B00208F
:1026A0000000000000000000901C0020D9870208F4
:1026B000B9A70208301D00206C06050800000000C4
:1026C000000000000000000000000000780605087F
:1026D0000300000025A902083C1E002000000000A5
:1026E000800605080300000025A90208301E00200E
:1026F000000000004CEF04080300000025A90208B8
:10270000241E0020000000008C06050803000000C5
:1027100025A90208181E00200000000098060508E0
:102720000300000025A902080C1E00200000000084
:10273000A006050802000000D5A70208000000005E
:1027400000000000A806050802000000D5A7020846
:102750000100000000000000B406050802000000AF
:10276000D5A70208020000000000000000000000E1
:102770000E0000000000000000000000000000004B
:102780004267002088136F17010000004467002093
:1027900088136F1700000000C00605080000000045
:1027A000000000000000000000000000D006050846
:1027B00008000000000000001C1F002004000000B2
:1027C000DC0605080800000000000000101F0020C3
:1027D000000000003C020508040000007DA402087F
:1027E0000000000000000000C8FD04080100000017
:1027F00000000000000000000000000000000000D9
:102800000E000000000000000000000000000000BA
:102810004067002088136F1701000000C84F002098
:1028200088136F1700000000DD820208000000001E
:10283000281F0020A66C00200100000058AC0408EE
:10284000CA4F00200100000064AC0408C04F002003
:10285000020000006CAC0408FEB60020000000007E
:1028600000000000FCB60020000000000000000096
:10287000FAB600200000000000000000F8B60020BA
:102880000000000000000000F6B60020000000007C
:1028900000000000F4B6002000000000000000006E
:1028A000E401002000000000000000003F6700205D
:1028B0000200000078AC04081807050800000000BA
:1028C000000000000000000000000000D006050825
:1028D0000800000000000000AC1F00200400000001
:1028E000DC0605080800000000000000A01F002012
:1028F000000000003C02050804000000AD82020850
:102900000000000000000000C8FD040801000000F5
:1029100000000000000000000000000000000000B7
:102920000E00000000000000000000000000000099
:10293000280705080000000000000000000000005B
:1029400000000000380705080D000000CDA50208B2
:10295000DC1F002004000000440705080D000000F3
:1029600005830208D01F002004000000500705085E
:102970000D00000091A50208C41F00200000000007
:102980005C07050803000000F5890208B81F002055
:1029900008000000680705080300000025A90208D8
:1029A000E022002000000000C8FD04080100000033
:1029B0000000000000000000000000000000000017
:1029C0000E000000000000000000000000000000F9
:1029D000C0FD04080000000000000000000000002E
:1029E000000000009FFB04080400000095A40208FA
:1029F0000000000000000000C8FD04080100000005
:102A000000000000000000000000000000000000C6
:102A10000E000000000000000000000000000000A8
:102A2000BC070508000000000000000000000000D6
:102A300000000000D4D404080D00000000000000D5
:102A40003C20002004000000CC070508080000001E
:102A5000000000003020002004000000D807050816
:102A600008000000000000002420002004000000F6
:102A7000E007050808000000000000001820002002
:102A800004000000E807050808000000000000003E
:102A90000C20002004000000F007050808000000DA
:102AA000000000000020002004000000F8070508D6
:102AB0000800000000000000F41F002004000000D7
:102AC000000805080800000000000000E81F0020C2
:102AD00004000000C8FD0408010000000000000020
:102AE0000000000000000000000000000E000000D8
:102AF000000000000000000000000000C582020885
:102B0000000000004820002000000000000000003D
:102B1000C020002000000000000000006021002014
:102B2000C64F00200400000084AC0408C44F0020FD
:102B3000E0150C1700000000C34F00200800000043
:102B40005CA70408C24F00200500000098AC0408F0
:102B50000000000000000000B02100200000803FC5
:102B60000000000000000000000000000000803FA6
:102B70000000000000000000000000000000000055
:102B80000000000000000000000000000000000045
:102B900000000000010000000000803F0000000075
:102BA00000000000000000000000803F0100000065
:102BB0000000803F00000000000000000000000056
:102BC000FF00000000000000B07E002008000000B0
:102BD00000000000A07E002008000000191D02086F
:102BE000131C02087533020800000000C118020817
:102BF000693A0208991B02085D31020800000000D2
:102C000000000000811802088B1C0208D51B020876
:102C1000BD32020800000000991802085F31020866
:102C20006B1B0208BF30020800000000000000001B
:102C30008D18020860B504080508040000000000B3
:102C400098AC04085CA7040884AC040800000000E9
:102C5000000000008CB5040805080A000000000010
:102C600098AC04085CA7040864AB040800000000EA
:102C700000000000080000004D1802084B18020870
:102C800049180208431802084118020847180208A8
:102C9000451802085D1802084F180208112502089D
:102CA00025250208FD240208E9240208D52402088B
:102CB00001000000006002401060024000000000BF
:102CC00000000000000B00000000000000000000F9
:102CD0000000000000600240286002400100000087
:102CE00000000000060C00000000000000000000D2
:102CF000000000000060024040600240020000004E
:102D000000000000100D00000000000000000000A6
:102D10000000000000600240586002400300000014
:102D200000000000160E000000000000000000007F
:102D300000000000006002407060024004000000DB
:102D400000000000200F0000000000000000000054
:102D500000000000006002408860024005000000A2
:102D6000000000002610000000000000000000002D
:102D70000000000000600240A06002400600000069
:102D80000000000030110000000000000000000002
:102D90000000000000600240B86002400700000030
:102DA00000000000362F00000000000000000000BE
:102DB00000000000006402401064024000000000B7
:102DC00000000000003800000000000000000000CB
:102DD000000000000064024028640240010000007E
:102DE00000000000063900000000000000000000A4
:102DF0000000000000640240406402400200000045
:102E000000000000103A0000000000000000000078
:102E1000000000000064024058640240030000000B
:102E200000000000163B0000000000000000000051
:102E300000000000006402407064024004000000D2
:102E400000000000203C0000000000000000000026
:102E50000000000000640240886402400500000099
:102E600000000000264400000000000000000000F8
:102E70000000000000640240A06402400600000060
:102E800000000000304500000000000000000000CD
:102E90000000000000640240B86402400700000027
:102EA00000000000364600000000000000000000A6
:102EB0000000000048260020000000000000000084
:102EC0000000000000000000000000000000000002
:102ED00000000000000000000000000000000000F2
:102EE00000000000000000000000000000000000E2
:102EF00000000000000000000000000000000000D2
:102F000000000000000000000000000000000000C1
:0C2F1000000000000000000001000000B4
:10800000704700BF70B50C4C23689BB15A68821A48
:10801000002A0FDB0546002603E05A68AA1A002A48
:1080200008DB99681E731A68216018469047236818
:10803000002BF2D170BD00BFB0260020436A8269D8
:10804000D154436A0169C26B01338B4228BF0023BC
:108050004362DAB1EFF31183502282F31288C26BCC
:108060001168C9070ED470B45468FCB9D0E909513D
:108070008D4211D1012280F86020DBB283F3118898
:1080800070BC7047DBB283F311887047C26DD36850
:1080900043F08003D360704786690E44D6600ED9E2
:1080A000691A51608562002180F86010116841F002
:1080B0000101DBB2116083F3118870BC7047056960
:1080C000691A51608462EEE7034610B4846BD96884
:1080D000406954B11A6D8C1A013A005D5DF8044B89
:1080E00008BF0A46C0B21A6570471A6A805C01323E
:1080F0008A4228BF2246C0B21A625DF8044B70471C
:10810000C36B13B190F860007047D0E90903181AE7
:10811000B0FA80F040097047D0E909120369914232
:1081200038BFC9188A1AC16B013B19B149680A44A2
:108130009A4201D2981A704700207047836B43B16E
:10814000026D5B689A4291BF981AC0689B1AC0186A
:108150007047D0E907239A422FBFD01AC068801811
:10816000C01A70470A4B30B503F10C0493F9002094
:108170005D78072AC8BF143A81180433CD7213F80A
:10818000025C855413F8012C8A759C42EED130BDF7
:108190009882040803682DE9F0415D6A1DB12B4601
:1081A000BDE8F0411847002A174611DD04460E4687
:1081B0000F4400E023689B68204698470028F9D0C8
:1081C000236816F8011B1B6820469847BE42F1D170
:1081D000BDE8F08103681B69184700BF00233D22FA
:1081E000027043708370C370704700BF90ED057AD2
:1081F00090ED004AD0ED066AD0ED014AD0ED047A48
:1082000090ED035AD0ED025AA4EE007AB0EE406A27
:10821000B0EE470AB0EE667AA4EE867A67EEC07AD0
:10822000A5EE407AE5EE867A80ED057AC0ED067A15
:10823000704700BFD0ED057A90ED013AD0ED003ADD
:10824000D0ED064A90ED024A90ED077A90ED035A80
:1082500090ED086AD0ED045AC0ED067AF0EE406A5F
:1082600027EE830AC0ED056AA3EEA60A80ED087A20
:10827000A4EE240AA5EE470AA5EEC60A80ED070A79
:10828000704700BFD0ED007A90ED017A30EE670ABA
:10829000E7EE007AB0EE670AC0ED007A704700BFE3
:1082A000704700BF2DE9F04714461D4606464FF4BF
:1082B0007A720023204629463EF036F94D4BDFF80E
:1082C00050814D4A4D4F034488FB03101844D91781
:1082D00082FB032CC1EB601088FB002887FB03277F
:1082E0009C44474AC1EBEC2CC0EB001E82FB0C29DE
:1082F000A3EB8E0E1F44434A86F806E0C1EB2747E6
:108300004FEAEC7E08EB000ACEEBA90E82FB078257
:108310004FEAE0780EEB4E0EC8EB6A18ACEBCE0CD1
:10832000C8EB0818DFF8ECE086F804C0A0EB880082
:1083300070718EFB0303F817C0EBE21240F2B550E8
:1083400000FB1272C1EBE353B2F5896F4FEA83076A
:108350003FDA40F2DA239A4243DCB2F5B77FB4BF8A
:108360004FF0000E4FF0010E4FEA4E08264B08EB7F
:108370000E0103EBC1031FFA8EFC588C234908EB56
:108380000E0301EBC30116310B2301E031F8020D9E
:1083900090421BDD013BF9D11B4BC64403EBCE0ED3
:1083A0000123BEF80C00B37007F5FA670132121A08
:1083B000BC44F270A6F800C0204629464FF47A72F9
:1083C00000233EF0B1F83281BDE8F0870133DBB223
:1083D000E9E74FF0030CE64640F296504FF00608EE
:1083E000CCE74FF0020CE64640F229404FF004087B
:1083F000C4E700BF80BC92C7C5B3A29107452EC297
:10840000ABAAAA2A73B06D1698820408A482040845
:1084100089888888792D031130B403888278174DB4
:10842000C478A3F5FA6303F0030101EB4101013ABB
:1084300002EB810205EB4202611E9589027940F24E
:10844000B5549B0804FB03132B4403EB430302EBDB
:10845000C303427984790A490089C3EB031302EB11
:1084600083032144C3EB031301EB83034FF47A72BC
:108470000021C2FB030130BC704700BF9882040892
:1084800080436D380028F0B403DA2D230B7040428E
:108490000131092804464FF0010307DD03EB830394
:1084A0005B00B0FBF3F2092AF8D883B10F48A0FBB8
:1084B0000326B4FBF3F2092A02F1570C02F130074C
:1084C00009DD03FB1244F30801F801CBEFD10023CF
:1084D0000B70F0BC704703FB1244F30801F8017BFA
:1084E000E5D100230B70F0BC704700BFCDCCCCCCE5
:1084F000884270B44FF0010442D301FB04F4B0FB96
:10850000F4F58D42F9D2ECB142BB092D04FB150004
:1085100005F1570605F130020EDDB4FBF1F403F866
:10852000016B7CB1B0FBF4F5092D04FB150005F1DE
:10853000570605F13002F0DCB4FBF1F403F8012B2F
:10854000002CEFD100221A7070BC704703F8016B49
:10855000B4FBF1F4002CF5D0B0FBF4F5092D04FBCD
:10856000150005F1370605F13002EFDCB4FBF1F43C
:1085700003F8012B002CEFD100221A7070BC704759
:108580000546002AEAD1C0E70A44914215D030B42A
:108590000139551E41F2210211F8014F082380EAEA
:1085A000042004044CBF82EA40004000013B80B23A
:1085B000F7D18D42F0D130BC7047704703685A1C28
:1085C00002601970704700BF2DE9F047089C2578BC
:1085D000002B804689460CBF4FF0200A4FF0300A2E
:1085E000661C25B3002A26DD334601E0024698B119
:1085F00013F8011B501E0029F8D1971E60B13D46AB
:10860000013D51464046C8476B1C002BF8DC2578DD
:1086100027EAE770013045B1041B29464046C847A8
:10862000301916F8015B002DF7D1BDE8F087002A5C
:1086300003DC2846F9E70020EEE7571EDFE700BF1E
:1086400001212C220223017042708370704700BF09
:10865000F0B400250E4E00F1FF3C2F46142165B109
:1086600003788B420BD003460CEB050403E013F8B0
:10867000012F8A4203D0A342F9D1C15501370135F8
:108680000B2D02D016F8011FE9E7F0BC704700BFC0
:10869000048304080C4AF0B4002302F108071726EB
:1086A0001625152403EB4303C118BA42C4544D7078
:1086B0008E7006D092F9043054799579D6790432C7
:1086C000F0E7F0BC704700BF1083040809211F22A7
:1086D0000323017042728372704700BF012320217F
:1086E000212241704271037203700371704700BF11
:1086F00006224FF47A73027043607047012070477E
:10870000CB79002B66D1F0B48E7A4F7A4D7B0C7CFE
:10871000CB7CDFED316A9FED317A320202F4706278
:108720003A43CF7A84B0360946EA07164FEA052C59
:108730000CF47067ADF8026091F80CC08E7BADF858
:1087400000202D094CEA070C45EA0615260206F41E
:108750007067ADF804C0CE7B91F811C0ADF806503B
:1087600024093E438D7C0F7DADF8086044EA0C116E
:108770001C0204F470641B09254343EA07136FF0DD
:1087800001046F46ADF80C50ADF80E30ADF80A108C
:10879000C7F10E06E41B0DF1020304AD01E033F84E
:1087A000022BC2F30A0107EE901AF8EEE77AB0EE58
:1087B000476AA7EEA66A120504EB030148BFF11849
:1087C000FCEEC67AAB4217EE902A4252E7D104B0D3
:1087D000F0BC7047704700BFABAA2A3F00804C44F2
:1087E000F0B4174C2379591C01F03F01E5184B1CDC
:1087F00021447E2603F03F021B232E7222710B724E
:10880000C61D7D2704E0A518B042DAB2297213D044
:1088100010F8011BA1F17D05531C012D03F03F034E
:10882000F1D82244E51881F020010133B0421772DB
:1088300003F03F022972EBD12271F0BC704700BFF8
:10884000B0260020F0B58F7A8D79CC7ACE790A7C6B
:10885000DFED5F3A4B7C4FEA072E0EF4706E45EA6F
:108860000E053F0107F4706C04EE105A4FEA042E17
:108870000D7A240104F470670EF4706E46EA0C045D
:1088800004EE904A45EA0E0405EE104A4C7AF8EEE2
:10889000E44A3C4305EE904A16020C7B120102F4B6
:1088A000706506F470664A7BB8EEC55A64EEA34A5A
:1088B00034432A4306EE104AF8EEE55A25EE235AD1
:1088C000FCEEE44A06EE902A1D028A7B1B0185B06D
:1088D00003F4706405F47065CB7BB8EEC66A14EEE1
:1088E000901A65EEA35ABCEEC55A2A4307EE102A29
:1088F000B8EEC44AF8EEE66A26EE236AFCEEE55AC4
:10890000ADF8021015EE101A234307EE903AB8EEB8
:10891000C77A24EE234A66EEA36ABCEEC66AADF8B7
:10892000041015EE901AF8EEE77A27EE237ABCEEE3
:10893000C44AFCEEE66AADF8061016EE101A67EEB1
:10894000A37A14EE103ABCEEC77AADF8081016EE12
:10895000901A9BB2FCEEE77AADF80A1017EE101AE7
:108960001A46ADF80C10A2F5487217EE901A0DF1E8
:108970000204B2F5AF6FADF80E10ADF8003021462D
:1089800004AD08D8A9420CD031F8022BA2F54872E8
:10899000B2F5AF6FF6D90F4B1B78122B0CD005B088
:1089A000F0BD821E0E3001E034F8023B22F8023F97
:1089B0009042F9D105B0F0BD074A0849B2F84830F5
:1089C00001339BB2A2F848300B8005B0F0BD00BF68
:1089D000ABAA2A3F497F0020B02600204C7F002010
:1089E000054A92F84A303F2B05D8D118013381F857
:1089F0004C0082F84A307047B0260020014BD3F873
:108A00008C301847B02600204FF4006383827047F3
:108A1000012380F854307047F0B4037C4569026844
:108A20001F2B37D9203B2021546899400C4223D07A
:108A300010249C40D160D4605168D940CE074ED4F8
:108A4000EFF31183502282F31288EA6B1168C90791
:108A500009D45468002C52D1D5E909618E4243D122
:108A6000012285F86020DBB283F31188037C026861
:108A70001F2B194614D9203B082150689940084201
:108A800000D0D1600421506801FA03F3184223D1C9
:108A9000F0BC7047202416689C4026420FD119462E
:108AA000082310688B40184200D09360042310689C
:108AB00003FA01F10842EBD09160F0BC704710213D
:108AC0009940946091601168D940CC07B8D50121D4
:108AD00001FA03F39360B3E7D360F0BC7047012160
:108AE00001FA03F3D360ABE7AF690F44D7600ED848
:108AF0002E69711A5160AC62002185F8601011680E
:108B000041F00101DBB2116083F31188AEE7711A05
:108B10005160AE62F0E700BF70B4037C01681F2BA8
:108B200026D9A3F1200520224C68AA40224214BF76
:108B300001220022D2B142691B481C4C02EB4202C6
:108B400000EB4212257854682068CDB9E568568953
:108B50002C6824F001042C6082891F2B22EA060273
:108B600082811AD8202202FA03F38B6070BC70470E
:108B700020220C689A40224214BF01220022D9E729
:108B8000A469226822F001022260828922F48072A4
:108B90001204120C1F2B8281E4D9A3F1200220239E
:108BA0009340CB6070BC7047609F00205C9F0020AA
:108BB00010B5027C01681F2A4FF020030ED94C68C3
:108BC000203A93401C4208D00B4A4068002414709D
:108BD000026822F001020260CB6010BD0C68934075
:108BE0001C42FAD0044A406800241470026822F043
:108BF000010202608B60F0E7785A00202DE9F0470F
:108C00008C4A8D4B12781C78D207064648D58B4D7E
:108C1000012C00F091801ED3022C40F09B808849EB
:108C2000884A09881288884F914201D901241C7012
:108C3000EB7AFBB12B89EBB1844B1B78D3B131F0CC
:108C400035FB002800F0E2802B7B83422CBF012300
:108C500000233B700FE0DFF8E8C17B4F7C4CBCF891
:108C600000002288697B521A8242DFDAEB7A002404
:108C7000002BDFD13B782A79632A07D87549022C6B
:108C8000087800F0B880002840F0A0807249AA7AE5
:108C90009C4238BF1C460C70002A44D1BDE8F087C6
:108CA000DFF89CC1654DBCF80000BCF8021095F8D7
:108CB00003E06A4F411A0029A4F10302B8BF4942F8
:108CC000704597F80080D2B211D32F7887420ED327
:108CD000012A45D9B8F1020F9AD15C48604A007860
:108CE00090800229CCBF00210121D18090E7B0EB18
:108CF0004E0FEDDC012A40F28C800229EADC0324CD
:108D0000514F524852494F4A1C70B8F1020F4FF070
:108D100000033C7003700B80138089D1504A0121FD
:108D20009380D18084E7012C6BD0022CB6D1072030
:108D3000BDE8F04732F084BA424A41491288687B64
:108D40000988121A914207DD414A12888A423CBFC3
:108D500000241C703C4F6BE702241C703A4F67E7FD
:108D60000229B7DC95F800E090FBFEFE0EF1010E43
:108D7000BEF1080FDFF8D4A0AA786978DFF8C490B4
:108D8000334C314FA8BF4FF0080E8AF800E01FFAAD
:108D90008EFA11FB0AF112FB0AF2DFF8B8A0A9F86B
:108DA000001092B200214FF06409B8F1020F228046
:108DB00039701970CAF804108AF801907FF452AF24
:108DC000274A0121A2F804E0D18048E74868301A18
:108DD000244EB042C8BF4A703FF758AFC2F1640298
:108DE000214E00FB02F086FB0062C017A0EBA250F0
:108DF000643048704AE70028E8D101274E600F70C0
:108E0000ECE70820BDE8F04732F01ABA02233B70C5
:108E100031E7032C7FF471AFB8F1020F9AD10B4AFE
:108E20000F4B12789A800229CCBF00210121D980F2
:108E3000054FFDE6CC4D00205C780020144E00204C
:108E4000F84D002060780020BC780020FE4D002006
:108E50005E78002064780020EC500020497F0020DC
:108E60004C7F00207F9698006BCA5F6B70B544887A
:108E70000546C4F30B04224608460E4600213DF089
:108E800011FE2B69094A934202D3094A934205D342
:108E90005BB121463046BDE8704018472246304657
:108EA0001946BDE870403DF097BD70BDF006000862
:108EB0007008000838B51D4B1B78044600F12505E5
:108EC00093B104221A4920303DF02AFE284614228C
:108ED00018493DF025FE012384F83A30164B1B78E3
:108EE00073B984F83B3038BD2846142213493DF04D
:108EF00017FE012384F83A300F4B1B78002BF0D07B
:108F00000F4B186859689A68DD68E56020606160F9
:108F1000A260DD69186959699A69A2610123E56156
:108F20002061616184F83B3038BD00BF0938002002
:108F30000A3800200F380020E8370020FCBD040864
:108F4000E937002030B50446C06D21718389A268DD
:108F500023F400531B041B0C838185B063790092BA
:108F600013F0040F4FEA03324FEA03230CBF00252E
:108F70004FF4805503F4806302F40052ADF80450BE
:108F8000ADF80830002511F00103ADF80620ADF86A
:108F90000C501CD1ADF80A3008238A07694648BF37
:108FA000ADF80A301BF074FA637913F0080FE36D23
:108FB0009A8A05BF22F00802120442F00802120C3D
:108FC0009A829A8942F400529A8105B030BD0423F6
:108FD000ADF80A300C23E0E730B50446C06DA1605F
:108FE000838923F400531B041B0C8381637985B0B0
:108FF00013F0040F009108BF0025217918BF4FF42A
:109000008055ADF804501A0300251B0203F4806359
:10901000ADF80A50ADF80C50CD07ADF8083002F4A9
:10902000005244BF0423ADF80A30ADF806204CBF0F
:109030000C2308238A07694648BFADF80A301BF0A5
:1090400027FA637913F0080FE36D9A8A05BF22F0BF
:109050000802120442F00802120C9A829A8942F421
:1090600000529A8105B030BD38B52C2200213DF068
:1090700019FD03466421222040F2DC521873197452
:1090800040F2022013215A82202240F21A4540F277
:109090006C74188399760E2002211A7701229D8222
:1090A000DC8240F2753540F6430483F8220083F8F1
:1090B0002A109A7383F82920DD831C8419460248FC
:1090C000BDE838400FF0D4B808BE040840F0800076
:1090D00038F07EBA30F044BE38B5224C94F8923065
:1090E00094F893201844C0B2904284F8920005D3BB
:1090F000801AC0B29042FBD284F89200362030F041
:1091000047FE94F892502544232095F8983303EBBA
:109110004303234493F89410FFF7DCFF95F898334A
:1091200003EB43032344242093F89510FFF7D2FF69
:1091300095F8983303EB43032344252093F89610C6
:10914000FFF7C8FF95F898130A20FFF7C3FF94F8BC
:10915000CC33082B00D038BD3A20BDE8384030F081
:1091600017BE00BFB0260020022810B504460BD859
:10917000084B0949094A00EB400003EB401318462D
:109180000B60147028F0F0FD601CC0B2BDE8104008
:1091900032F024BBDC670020D85200209C9A0020CB
:1091A00038B53C4B3C481A785B783C493C4C3D4DCB
:1091B00002EB420203EBC30301EB430300EB421259
:1091C0002B6022602BF0AAFD0021302236483DF0B2
:1091D00069FC206828F0C8FD344B03F1780102E0F7
:1091E00006338B4253D01A78002AF9D19C78D8786C
:1091F000844202D358790028F2D02D492D4B0C79A6
:109200002D492E480A70C822642111FB0421002236
:109210002B4CDA61C3E90112C3E90322C3E9052239
:1092200083F8202083F8212004600EF0B5F8254B48
:109230009FED255AB3F8D02393F8D2339FED236ADC
:1092400006EE902AF8EEE66A214AC5EE265A118803
:10925000507907EE101A1F490B60538812791E4986
:1092600007EE903AB8EEC77AF8EEE77A1B4BC1EDFD
:10927000005A27EE067A67EE867A18725A7283EDE4
:10928000017AC3ED007ABDE8384022F009B9012225
:10929000B3E700BF9C9A0020DC670020266900200D
:1092A000D8520020DC520020C07700203C3B002038
:1092B0008C6D0020D04D00203C2300205C4300201A
:1092C0004A350020B0260020C0C9FB4817B7D13866
:1092D000B440002054720020587200202C720020EC
:1092E000074B1B7853B9074B00F1200250F8041BC1
:1092F00043F8041B9042F9D10120704700207047C9
:10930000E8370020E937002010B5154C94F80E34EA
:10931000002B144B14BF012200221A700BD0042220
:1093200004F57D7110483DF0FBFB142204F2F93185
:109330000E483DF0F5FB94F80F34002B0C4B14BF96
:10934000012200221A7009D00A4B0B4A03F12001B6
:1093500053F8040B42F8040B8B42F9D110BD00BF47
:10936000B0260020093800200A3800200F380020DD
:10937000E8370020842A0020E93700200B4B1B78B7
:1093800010B58BB90A4B0B4A03F1200153F8040BBB
:1093900042F8040B8B42F9D1074B012483F80F44A8
:1093A000FFF7B2FF204610BD0020FCE7E8370020A1
:1093B000E9370020842A0020B026002038B50C4B65
:1093C0001B789BB90B4D0C49042205F57D703DF0CF
:1093D000A7FB01241422094905F2F9303DF0A0FB56
:1093E00085F80E44FFF790FF204638BD0020FCE7CB
:1093F00009380020B02600200A3800200F3800204D
:10940000F0B50C2934D8DFE801F08A3333335F3309
:109410003333343333330700048C9689B2F802C0F7
:109420001788744D24F480542404240C0484038C81
:109430008488818B23F4005321F4E6411B04090442
:109440001B0C46EA0C06090C43EA063341EA0721E5
:10945000A8429BB2A4B289B200F09E8005F5806557
:10946000A84200F09980926884808183026403841A
:10947000F0BD048C9589B2F802E017885D4E24F4A3
:1094800080742404240C0484038CB0F804C0818B01
:1094900023F400731B0421F0730145EA0E041B0C36
:1094A000090443EA0423090CB0429BB21FFA8CF56D
:1094B00041EA07015BD0504CA04258D092688580A9
:1094C0008183C2630384F0BD048C9589B2F802E005
:1094D000B2F800C0474E24F010042404240C048485
:1094E000038C8788018B23F0200321F4E6411B04C1
:1094F00009041B0C45EA0E04090C43EA041341EA73
:109500000C21B0429BB2BFB289B25BD03A4CA042B0
:1095100058D092688780018382630384F0BD048CF5
:109520009589B2F802C01788324E24F00104240451
:10953000240C0484018C8488038B21F0020123F025
:10954000730309041B04090C45EA0C051B0CB0420B
:1095500041EA0501A4B243EA070324D0264DA842FC
:1095600021D092688480038342630184F0BDD48952
:10957000168A578A23F4006343EA04234FF6FF3424
:109580001C40938825F440553E4344EA032345EAB2
:1095900006149BB2A5B291E7158A24F4804444EAEC
:1095A0008514A4B25FE7D689158A578A21F008018D
:1095B0003143968824F4407421F004013D43314343
:1095C0002C43CEE7D489168AB2F812C023F0800368
:1095D00043EA04134FF6BF741C40938827F4406598
:1095E00046EA0C0644EA031345EA86049BB2A7B296
:1095F0008FE700BF00000140000401402DE9F84F53
:10960000C8220021DFF8108279487A4C7A4E7B4FCD
:10961000DFF80892DFF808A23DF044FA784979486B
:10962000DFF800C2DFF800E208F5A27245462B68B9
:109630008B4200F0B280B3F1804F00F0B580A342BE
:1096400000F0B980B34200F0C480BB4200F0C38098
:10965000634500F0C280734500F0C1804B4500F0C7
:10966000C080534500F0C080DFF8C0B15B4508BF43
:109670004FF4802300F092802435AA42D7D1624F64
:10968000624E4FF0030A4FF0020998F80630002BA3
:109690007CD098F804301C09013C032C03F00F0324
:1096A00074D837F8140040FA03F2D2076ED54FF0A1
:1096B000010B0BFA03F3013B18403CF085FF544BC0
:1096C0001B5D184416EBC00460D056F8303051488A
:1096D00098F8081003F13F4202F57E02920A825C7C
:1096E00002F01F005209032A0BFA00FB6BD0042A78
:1096F00063D0022A04D14348426C4BEA020242641E
:10970000B4F804C0BCFA8CF2C2F11F0292B2D008C5
:1097100003EB800002F00702046A92004FF00F0E84
:109720000EFA02FE24EA0E040462046A01FA02F24E
:10973000224302624FF0010E00220EFA02F434EAD4
:109740000C0120D15000D3F800B00AFA00F1C9434F
:109750000BEA010BC3F800B0D3F800B009FA00F02F
:1097600040EA0B0018609868084098609868986014
:10977000586820EA04045C6058685860D868014062
:10978000D960D968D9600132102AD6D108F12408ED
:1097900045457FF47AAFBDE8F88F0123D0F844B097
:1097A00043EA0B03436467E70123D0F840B043EA80
:1097B0000B03036460E70223F7E71248026B4BEAEE
:1097C000020202639CE70F48026C4BEA0202026449
:1097D00096E70423E9E70823E7E71023E5E72023DA
:1097E000E3E74FF48033D9E74FF40033D6E700BF07
:1097F000B08E00200004004000080040000C004033
:10980000000001400038024074B70408AC9B0020FF
:109810007CB70408B8B5040830B60408004001401D
:109820000044014000100040001400400048014086
:1098300000B9704703682DE9F04F03F13F4404F588
:109840007E04534EA40A0125345D04F01F0664090A
:10985000032C05FA06F500F09580042C00F08D80AD
:10986000022C45D08588B5FA85F0C0F11F0080B282
:10987000C40803EB840400F00700266A80000F2769
:10988000874026EA07062662276A01F0030682401F
:10989000701E3A4301282262C1F3810EC1F3001801
:1098A0004FF000024FEA51114FF0010C25D94FF053
:1098B000030E0CFA02F0A84315D150001F680EFAEF
:1098C00000F4E44327401F60D3F8008006FA00F755
:1098D00047EA08071F60DF683C40DC60DC6801FA8B
:1098E00000F02043D8600132102AE2D1BDE8F08FA9
:1098F000284C666C35436564B4E74FF003090CFAF5
:1099000002F737EA050033D15000D3F800A009FA76
:1099100000F4E4430AEA040AC3F800A0D3F800B054
:1099200006FA00FA4AEA0B0AC3F800A0D3F808A026
:1099300004EA0A0AC3F808A0D3F808B00EFA00FA3D
:109940004AEA0B0AC3F808A0D3F804A02AEA0707DA
:109950005F60D3F804A008FA02F747EA0A075F60DD
:10996000DF683C40DC60DC6801FA00F02043D8602E
:109970000132102AC3D1BDE8F08F064C266B354367
:1099800025636FE7034C266C354325646AE700BF07
:10999000B8B504080038024003682DE9F04F03F120
:1099A0003F4404F57E04534EA40A0125345D04F0BF
:1099B0001F066409032C05FA06F500F09580042CB7
:1099C00000F08D80022C46D08588B5FA85F0C0F174
:1099D0001F0080B2C40803EB840400F00700266A6D
:1099E00080000F27874026EA07062662276A01F0D3
:1099F000030602FA00F0721E3843012AC1F3810EF9
:109A0000C1F3001820624FEA51114FF000024FF0ED
:109A1000010C25D94FF0030E0CFA02F0A84315D122
:109A200050001F680EFA00F4E44327401F60D3F88B
:109A3000008006FA00F747EA08071F60DF683C402D
:109A4000DC60DC6801FA00F02043D8600132102AA3
:109A5000E2D1BDE8F08F284C666C35436564B3E70E
:109A60004FF003090CFA02F737EA050033D1500032
:109A7000D3F800A009FA00F4E4430AEA040AC3F8A0
:109A800000A0D3F800B006FA00FA4AEA0B0AC3F8BD
:109A900000A0D3F808A004EA0A0AC3F808A0D3F883
:109AA00008B00EFA00FA4AEA0B0AC3F808A0D3F885
:109AB00004A02AEA07075F60D3F804A008FA02F7B7
:109AC00047EA0A075F60DF683C40DC60DC6801FA57
:109AD00000F02043D8600132102AC3D1B9E7064C08
:109AE000266B354325636FE7034C266C35432564AD
:109AF0006AE700BFB8B504080038024010B5040991
:109B0000013C032C17D80E4B33F8142000F00F0043
:109B100042FA00F313F001030FD0012303FA00F01F
:109B2000013810403CF050FD064A074B125D1044CE
:109B300003EBC00010BD002010BD184610BD00BFD3
:109B400074B704087CB70408AC9B00202DE9F843E7
:109B5000304D2B8AB5F80C8018EA030827D02E4E1A
:109B60004FF00047B8FA88F327FA03F2D24391B2D4
:109B70001B3B08EA02082982042B15D8DFE803F012
:109B8000372D23190300D6F8C430002B39D1EB6AE6
:109B90001FFA83F9D6F8C04034B1236820464946FD
:109BA00098476468002CF8D1B8F1000FDAD1BDE80D
:109BB000F883D6F8A000696B036889B29847B8F1BA
:109BC000000FCFD1F3E7D6F8A400A96B036889B2E0
:109BD0009847B8F1000FC5D1E9E7D6F8A800E96BBE
:109BE000036889B29847B8F1000FBBD1DFE7D6F818
:109BF000AC00296C036889B29847B8F1000FB1D165
:109C0000D5E703F1FF3900231FFA89F9C6F8C430FC
:109C1000C0E700BF00400140B08E00202DE9F843AE
:109C20002F4D2B8AB5F80C8018EA030827D02D4E4B
:109C30004FF00047B8FA88F327FA03F2D24391B203
:109C40001B3B08EA02082982042B15D8DFE803F041
:109C5000352B22190300D6F89C30002B37D1EB6A44
:109C60001FFA83F9D6F8984034B123682046494654
:109C700098476468002CF8D1B8F1000FDAD1BDE83C
:109C8000F883B06F696B036889B29847B8F1000F29
:109C9000D0D1F4E7F06FA96B036889B29847B8F1A7
:109CA000000FC7D1EBE7D6F88000E96B036889B2F3
:109CB0009847B8F1000FBDD1E1E7D6F88400296CD0
:109CC000036889B29847B8F1000FB3D1D7E703F121
:109CD000FF3900231FFA89F9C6F89C30C2E700BF9C
:109CE000000C0040B08E00202DE9F8432C4D2B8A4B
:109CF000B5F80C8018EA030825D02A4E4FF000472B
:109D0000B8FA88F327FA03F2D24391B21B3B08EA70
:109D100002082982042B13D8DFE803F03229201728
:109D20000300736F002B34D1EB6A1FFA83F9346F91
:109D300034B123682046494698476468002CF8D11E
:109D4000B8F1000FDCD1BDE8F883306D696B0368B2
:109D500089B29847B8F1000FD2D1F4E7706DA96BC2
:109D6000036889B29847B8F1000FC9D1EBE7B06D2D
:109D7000E96B036889B29847B8F1000FC0D1E2E7F8
:109D8000F06D296C036889B29847B8F1000FB7D11C
:109D9000D9E703F1FF3900231FFA89F97367C6E792
:109DA00000080040B08E00202DE9F8434FF08045B8
:109DB0002B8AB5F80C8018EA030825D0294E4FF0FD
:109DC0000047B8FA88F327FA03F2D24391B21B3B5B
:109DD00008EA02082982042B13D8DFE803F03229AD
:109DE00020170300F36C002B34D1EB6A1FFA83F9C0
:109DF000B46C34B123682046494698476468002C07
:109E0000F8D1B8F1000FDCD1BDE8F883B06A696B16
:109E1000036889B29847B8F1000FD2D1F4E7F06A2D
:109E2000A96B036889B29847B8F1000FC9D1EBE775
:109E3000306BE96B036889B29847B8F1000FC0D165
:109E4000E2E7706B296C036889B29847B8F1000F9C
:109E5000B7D1D9E703F1FF3900231FFA89F9F36479
:109E6000C6E700BFB08E00202DE9F8432C4D2B8AA9
:109E7000B5F80C8018EA030825D02A4E4FF00047A9
:109E8000B8FA88F327FA03F2D24391B21B3B08EAEF
:109E900002082982042B13D8DFE803F032292017A7
:109EA0000300736A002B34D1EB6A1FFA83F9346A1A
:109EB00034B123682046494698476468002CF8D19D
:109EC000B8F1000FDCD1BDE8F8833068696B036836
:109ED00089B29847B8F1000FD2D1F4E77068A96B46
:109EE000036889B29847B8F1000FC9D1EBE7B068B1
:109EF000E96B036889B29847B8F1000FC0D1E2E777
:109F0000F068296C036889B29847B8F1000FB7D19F
:109F1000D9E703F1FF3900231FFA89F97362C6E715
:109F200000000140B08E00202DE9F8432C4D2B8A13
:109F3000B5F80C8018EA030825D02A4E4FF00047E8
:109F4000B8FA88F327FA03F2D24391B21B3B08EA2E
:109F500002082982042B13D8DFE803F032292017E6
:109F60000300736A002B34D1EB6A1FFA83F9346A59
:109F700034B123682046494698476468002CF8D1DC
:109F8000B8F1000FDCD1BDE8F8833068696B036875
:109F900089B29847B8F1000FD2D1F4E77068A96B85
:109FA000036889B29847B8F1000FC9D1EBE7B068F0
:109FB000E96B036889B29847B8F1000FC0D1E2E7B6
:109FC000F068296C036889B29847B8F1000FB7D1DF
:109FD000D9E703F1FF3900231FFA89F97362C6E755
:109FE00000000140B08E0020F0B50668424CB30A74
:109FF000A34272D008D8B3F5801F6BD0013CA342B6
:10A000005FD17027022507E03C4CA3425FD010349B
:10A01000A34256D1C02704254379B6F80CE00220AC
:10A0200023FA00F4A0401FFA80FCA800234644193C
:10A0300003EB4403324C002952D04CEA0E0C03F1DE
:10A04000040E44F8231044F82E20A6F80CC0E3199F
:10A05000EFF31181502282F31288421904EBC202FD
:10A06000D2F810C0BCF1000F03D044F807C0136948
:10A070000433421904EBC202576917B11F605369D8
:10A080000433421904EBC202976917B11F60936948
:10A090000433421904EBC202D76917B11F60D369B8
:10A0A00004330027CAB21F6082F31188284404EBEE
:10A0B000C004236A33B9B38923F001031B041B0CCA
:10A0C000B381F0BDB38943F00103B381F0BD202714
:10A0D0000025A1E7482701259EE7982703259BE750
:10A0E0002EEA0C0C03F1040EA6F80CC044F8231061
:10A0F00044F82E20ABE700BF030010004000100022
:10A10000B08E002030B50368584C594D188824682B
:10A11000B4FBF2F20139013AAB4294B283B089B296
:10A1200082B211D0534883420ED0B3F1804F0BD08E
:10A13000A0F58030834207D000F58060834203D0D1
:10A1400000F58060834202D122F0700292B24A4848
:10A15000834269D000F58060834241D022F440728E
:10A1600000F56C4092B283421A80D9621C8564D19A
:10A170000122002119869A821A883D4842F0010284
:10A1800083421A8036D0B3F1804F60D03B4A93426D
:10A190005FD002F5806293425DD002F58062934207
:10A1A0005BD002F58062934259D002F580629342FF
:10A1B00057D002F59632934255D002F58062934211
:10A1C00017D002F58062934208BF092112D002A87D
:10A1D0004FF0012340F8043D36F054FB03B030BD8E
:10A1E00001201A80D9621C8598821A8802431A803D
:10A1F000C9E70821224B03EBC10100224C798DF8FD
:10A200000440012301A88DF805308DF807308DF842
:10A21000062036F037FB1B2CE0D11A4B019301A826
:10A2200036F030FB03B030BD01201A80D9621C85A6
:10A2300098821A8802431A80A8E70E4A934297D060
:10A2400001229A821A8842F001021A809BE70121BA
:10A25000D0E70221CEE70321CCE70421CAE705219C
:10A26000C8E70621C6E70721C4E700BF309F0020EA
:10A2700000000140000401400010004000040040C4
:10A2800080B70408190100011F4B98422CD0B0F18F
:10A29000804F2BD0A3F57C43984229D003F58063EF
:10A2A000984227D003F58063984225D003F5806358
:10A2B000984223D003F58063984221D003F596336A
:10A2C00098421FD003F58063984207D003F580635E
:10A2D000984208BF092202D00020704708220B4B89
:10A2E00003EBC203187970470022F8E70122F6E772
:10A2F0000222F4E70322F2E70422F0E70522EEE768
:10A300000622ECE70722EAE70000014080B70408D4
:10A31000002330B40F4A1D46012404E00133092B09
:10A320000DD012F8244C30EA040402F12402F5D1D5
:10A33000A94207D001330135092BEDB2F1D100203C
:10A3400030BC7047044A03EBC30302EB830330BC09
:10A35000187970475AB6040830B6040810B50021C1
:10A3600004460120FFF7D4FF207010BD38B500244B
:10A370000472451EE1B20220FFF7CAFF0134082C27
:10A3800005F8010FF6D138BD68B10A4A1321002340
:10A3900001E012F8241C884202F1240204D00133A7
:10A3A000092BF6D100207047034803EBC30300EBF1
:10A3B0008300704758B6040830B604082DE9F04F02
:10A3C00085B0CDE902109B4DDFF878A2029B013BDE
:10A3D0000293013300F02A8136F026FE964C974F07
:10A3E000DFF864E2964E4FF4FA7301934FF01008D1
:10A3F000DEF80430C3F30803002B40F0F680EFF3DF
:10A400001183002B40F0F1802068AA6823689842ED
:10A41000FAD133689A42F7D8D7F800C04FF47A716E
:10A4200001FB0CF39B1AB3FBFCF301FB00304FF470
:10A430007A7C4FF00109DEF80430C3F30803002BE7
:10A4400040F0B580EFF31183002B40F0B08023681B
:10A45000A96822689342FAD132689142F7D83A68E3
:10A460000CFB02FBABEB0101B1FBF2F10CFB0313A4
:10A470001B1AB3F57A7FDED3019B013B0193B7D161
:10A48000039B6F4E581CC0B236F022FCDFF8B8E1D7
:10A490004FF47A730193DEF80430C3F308034FF0EE
:10A4A0001008002B44D1EFF31183002B40D120681A
:10A4B000AA6823689842FAD133689A42F7D8D7F845
:10A4C00000C04FF47A7101FB0CF39B1AB3FBFCF351
:10A4D00001FB00304FF47A7C4FF00109DEF80430C4
:10A4E000C3F30803002B44D1EFF31183002B40D1B9
:10A4F0002368A96822689342FAD132689142F7D85A
:10A500003A680CFB02FBABEB0101B1FBF2F10CFB77
:10A5100003131B1AB3F57A7FE0D3019B013B019330
:10A520003FF454AFDEF80430C3F30803002BBAD075
:10A53000EFF3118388F31288D5F808C02A68D20394
:10A5400004D50122CAF80020D5F808C02068DAF83E
:10A550000090DBB283F3118839684FF47A72484473
:10A5600002FB01F3A3EB0C03B3FBF1F302FB00309E
:10A57000B0E7EFF3118188F31288D5F808B02B68A3
:10A58000DB0344BFCAF80090D5F808B02368DAF8B6
:10A590000020C9B281F31188396813440CFB01F221
:10A5A000A2EB0B02B2FBF1F20CFB0323B1E7EFF3DA
:10A5B000118188F31288D5F808B02B68DB0344BFFB
:10A5C000CAF80090D5F808B02368DAF80020C9B2BC
:10A5D00081F31188396813440CFB01F2A2EB0B02E2
:10A5E000B2FBF1F20CFB032342E7EFF3118388F394
:10A5F0001288D5F808C02A68D20304D50122CAF807
:10A600000020D5F808C02068DAF80090DBB283F3A8
:10A61000118839684FF47A72484402FB01F3A3EBC6
:10A620000C03B3FBF1F302FB003000E705B0BDE81B
:10A63000F08F00BF10E000E0C47F0020C87F002042
:10A64000CC7F0020C07F002000ED00E0224B5B6843
:10A65000C3F3080330B4D3B9EFF31183BBB91F4A76
:10A660001F4D20481368846811688B42FAD129680D
:10A670008C42F7D81C4A11684FF47A7202FB01F041
:10A68000001B30BCB0FBF1F002FB03007047EFF39E
:10A690001182102383F3128803F1E023D2B29C6865
:10A6A000196811F4803F11491EBF012008609C68A1
:10A6B0000A4B18680B6882F311880B4A11684FF433
:10A6C0007A72034402FB01F0001B30BCB0FBF1F0D6
:10A6D00002FB0300704700BF00ED00E0C47F0020D4
:10A6E000CC7F002010E000E0C87F0020C07F002069
:10A6F0002DE9F84F8046274C274DDFF8A490274ED0
:10A70000FFF7A4FFDFF89CE0DFF89CC04FF0100AD1
:10A710004FF47A77DCF80430C3F30803CBB9EFF3D6
:10A720001183B3B92368A96822689342FAD13268C9
:10A730009142F7D8DEF8002007FB02FBABEB0101EA
:10A74000B1FBF2F107FB03131B1A4345E2D3BDE84B
:10A75000F88FEFF311818AF31288D5F808B02B68CF
:10A76000DB0304D50123C9F80030D5F808B023680D
:10A77000D9F80020C9B281F31188DEF80010134423
:10A7800007FB01F2A2EB0B02B2FBF1F207FB032382
:10A79000DAE700BFC47F002010E000E0CC7F00209B
:10A7A000C07F0020C87F002000ED00E070B59D4C08
:10A7B0002368002B40F005819B4B1A78002A68D053
:10A7C0009A4B19789A4B002964D11868B3F82C5128
:10A7D00041628489012A44EA05048481A3F82C118A
:10A7E00057D0D3F83001B3F85C5241628489022A11
:10A7F00044EA05048481A3F85C124AD0D3F86002CD
:10A80000B3F88C5341628489032A44EA05048481A5
:10A81000A3F88C133DD0D3F89003B3F8BC54416235
:10A820008489042A44EA05048481A3F8BC1430D046
:10A83000D3F8C004B3F8EC5541628489052A44EA90
:10A8400005048481A3F8EC1523D0D3F8F005B3F800
:10A850001C5741628489062A44EA05048481A3F8CE
:10A860001C1716D0D3F82007B3F84C5841628489DE
:10A87000072A44EA05048481A3F84C1809D0D3F8C8
:10A880005028B3F87C495162908920439081A3F805
:10A890007C1970BD5C68198961602568186845F08D
:10A8A000010540F20D312560A0F848108489012A85
:10A8B00044F480748481ECD0D3F83441B3F8385137
:10A8C000D3F830016560256845F001052560A0F8E2
:10A8D00048108489022A44F480748481D9D0D3F842
:10A8E0006442B3F86852D3F860026560256845F0A9
:10A8F00001052560A0F848108489032A44F4807477
:10A900008481C6D0D3F89443B3F89853D3F8900316
:10A910006560256845F001052560A0F84810848928
:10A92000042A44F480748481B3D0D3F8C444B3F8C7
:10A93000C854D3F8C0046560256845F0010525605A
:10A94000A0F848108489052A44F480748481A0D03A
:10A95000D3F8F445B3F8F855D3F8F00565602568E9
:10A9600045F001052560A0F848108489062A44F4C2
:10A97000807484818DD0D3F82447B3F82857D3F856
:10A9800020076560256845F001052560A0F848109E
:10A990008489072A44F4807484813FF47AAFD3F821
:10A9A0005428B3F85808D3F850385060106840F075
:10A9B00001001060A3F848109A8942F480729A81CD
:10A9C00070BD0546FFF742FE217AA9B16DB1194A63
:10A9D000002316890133002E18BF0021AB4202F17B
:10A9E0006002F6D100293FF4E7AE00F51C501030AC
:10A9F000002320602372DFE62368C31A002BFFF6D2
:10AA000048AF637A3BB1013BDBB263722BB100F517
:10AA10007A702060D0E62360CEE66368034423604A
:10AA2000CAE600BF4078002060A200205C9F0020A2
:10AA300064A20020609F00202DE9F04FDFF834C1B0
:10AA4000494CDFF834E1DFF83481484E824648480B
:10AA50001AF1FF3AC0F08680DCF80430C3F3080333
:10AA6000002B5ED1EFF31183002B5AD10568A26849
:10AA700003689D42FAD133689A42F7D8DEF8007035
:10AA80004FF47A7101FB07F39B1AB3FBF7F301FB59
:10AA90000535DCF80430C3F308034FF010094FF418
:10AAA0007A77F3B9EFF31183DBB90368A168026821
:10AAB0009342FAD132689142F7D8DEF8002007FBC2
:10AAC00002FBABEB0101B1FBF2F107FB03135B1BD4
:10AAD000B3F57A7FBCD2DCF80430C3F30803002B53
:10AAE000E0D0EFF3118189F31288D4F808B023681D
:10AAF000DB0304D50123C8F80030D4F808B003689C
:10AB0000D8F80020C9B281F31188DEF80010134490
:10AB100007FB01F2A2EB0B02B2FBF1F207FB0323EE
:10AB2000D5E7EFF31183102282F31288A16822681F
:10AB3000D20303D50122C8F80020A168D0F8009004
:10AB4000D8F80050DBB283F31188DEF800704FF4C0
:10AB50007A724D4402FB07F35B1AB3FBF7F302FB77
:10AB6000053596E7BDE8F08F10E000E0CC7F0020CF
:10AB7000C47F002000ED00E0C87F0020C07F0020DF
:10AB800038B50F4C054694F897130C20FEF7A2FA3F
:10AB900008211820FEF79EFA85B994F8951309202C
:10ABA000FEF798FA0D210720FEF794FA16211920D6
:10ABB000FEF790FA0A20BDE838403DE70321EEE7B2
